{
	"FundMe.sol": {
		"FundMe": {
			"abi": [
				{
					"inputs": [],
					"stateMutability": "nonpayable",
					"type": "constructor"
				},
				{
					"inputs": [],
					"name": "fund",
					"outputs": [],
					"stateMutability": "payable",
					"type": "function"
				},
				{
					"inputs": [],
					"name": "owner",
					"outputs": [
						{
							"internalType": "address",
							"name": "",
							"type": "address"
						}
					],
					"stateMutability": "view",
					"type": "function"
				},
				{
					"inputs": [],
					"name": "withdraw",
					"outputs": [],
					"stateMutability": "nonpayable",
					"type": "function"
				}
			],
			"devdoc": {
				"kind": "dev",
				"methods": {},
				"version": 1
			},
			"evm": {
				"assembly": "    /* \"FundMe.sol\":111:1524  contract FundMe {... */\n  mstore(0x40, 0x80)\n    /* \"FundMe.sol\":261:265  5e18 */\n  0x4563918244f40000\n    /* \"FundMe.sol\":231:265  uint256 internal minimumUSD = 5e18 */\n  0x00\n  sstore\n    /* \"FundMe.sol\":517:633  constructor() {... */\n  callvalue\n  dup1\n  iszero\n  tag_1\n  jumpi\n  0x00\n  dup1\n  revert\ntag_1:\n  pop\n    /* \"FundMe.sol\":549:559  msg.sender */\n  caller\n    /* \"FundMe.sol\":541:546  owner */\n  0x03\n  0x00\n    /* \"FundMe.sol\":541:559  owner = msg.sender */\n  0x0100\n  exp\n  dup2\n  sload\n  dup2\n  0xffffffffffffffffffffffffffffffffffffffff\n  mul\n  not\n  and\n  swap1\n  dup4\n  0xffffffffffffffffffffffffffffffffffffffff\n  and\n  mul\n  or\n  swap1\n  sstore\n  pop\n    /* \"FundMe.sol\":111:1524  contract FundMe {... */\n  dataSize(sub_0)\n  dup1\n  dataOffset(sub_0)\n  0x00\n  codecopy\n  0x00\n  return\nstop\n\nsub_0: assembly {\n        /* \"FundMe.sol\":111:1524  contract FundMe {... */\n      mstore(0x40, 0x80)\n      jumpi(tag_1, lt(calldatasize, 0x04))\n      shr(0xe0, calldataload(0x00))\n      dup1\n      0x3ccfd60b\n      eq\n      tag_2\n      jumpi\n      dup1\n      0x8da5cb5b\n      eq\n      tag_3\n      jumpi\n      dup1\n      0xb60d4288\n      eq\n      tag_4\n      jumpi\n    tag_1:\n      0x00\n      dup1\n      revert\n        /* \"FundMe.sol\":933:1516  function withdraw() public {... */\n    tag_2:\n      callvalue\n      dup1\n      iszero\n      tag_5\n      jumpi\n      0x00\n      dup1\n      revert\n    tag_5:\n      pop\n      tag_6\n      tag_7\n      jump\t// in\n    tag_6:\n      stop\n        /* \"FundMe.sol\":462:482  address public owner */\n    tag_3:\n      callvalue\n      dup1\n      iszero\n      tag_8\n      jumpi\n      0x00\n      dup1\n      revert\n    tag_8:\n      pop\n      tag_9\n      tag_10\n      jump\t// in\n    tag_9:\n      mload(0x40)\n      tag_11\n      swap2\n      swap1\n      tag_12\n      jump\t// in\n    tag_11:\n      mload(0x40)\n      dup1\n      swap2\n      sub\n      swap1\n      return\n        /* \"FundMe.sol\":710:927  function fund() public payable{... */\n    tag_4:\n      tag_13\n      tag_14\n      jump\t// in\n    tag_13:\n      stop\n        /* \"FundMe.sol\":933:1516  function withdraw() public {... */\n    tag_7:\n        /* \"FundMe.sol\":993:998  owner */\n      0x03\n      0x00\n      swap1\n      sload\n      swap1\n      0x0100\n      exp\n      swap1\n      div\n      0xffffffffffffffffffffffffffffffffffffffff\n      and\n        /* \"FundMe.sol\":979:998  msg.sender == owner */\n      0xffffffffffffffffffffffffffffffffffffffff\n      and\n        /* \"FundMe.sol\":979:989  msg.sender */\n      caller\n        /* \"FundMe.sol\":979:998  msg.sender == owner */\n      0xffffffffffffffffffffffffffffffffffffffff\n      and\n      eq\n        /* \"FundMe.sol\":971:1038  require(msg.sender == owner, \"Can only be withdrawn by the Owner!\") */\n      tag_16\n      jumpi\n      mload(0x40)\n      0x08c379a000000000000000000000000000000000000000000000000000000000\n      dup2\n      mstore\n      0x04\n      add\n      tag_17\n      swap1\n      tag_18\n      jump\t// in\n    tag_17:\n      mload(0x40)\n      dup1\n      swap2\n      sub\n      swap1\n      revert\n    tag_16:\n        /* \"FundMe.sol\":1053:1069  uint funderIndex */\n      0x00\n        /* \"FundMe.sol\":1048:1259  for (uint funderIndex = 0; funderIndex < funders.length; funderIndex++) {... */\n    tag_19:\n        /* \"FundMe.sol\":1089:1096  funders */\n      0x01\n        /* \"FundMe.sol\":1089:1103  funders.length */\n      dup1\n      sload\n      swap1\n      pop\n        /* \"FundMe.sol\":1075:1086  funderIndex */\n      dup2\n        /* \"FundMe.sol\":1075:1103  funderIndex < funders.length */\n      lt\n        /* \"FundMe.sol\":1048:1259  for (uint funderIndex = 0; funderIndex < funders.length; funderIndex++) {... */\n      iszero\n      tag_20\n      jumpi\n        /* \"FundMe.sol\":1134:1148  address funder */\n      0x00\n        /* \"FundMe.sol\":1151:1158  funders */\n      0x01\n        /* \"FundMe.sol\":1159:1170  funderIndex */\n      dup3\n        /* \"FundMe.sol\":1151:1171  funders[funderIndex] */\n      dup2\n      sload\n      dup2\n      lt\n      tag_22\n      jumpi\n      tag_23\n      tag_24\n      jump\t// in\n    tag_23:\n    tag_22:\n      swap1\n      0x00\n      mstore\n      keccak256(0x00, 0x20)\n      add\n      0x00\n      swap1\n      sload\n      swap1\n      0x0100\n      exp\n      swap1\n      div\n      0xffffffffffffffffffffffffffffffffffffffff\n      and\n        /* \"FundMe.sol\":1134:1171  address funder = funders[funderIndex] */\n      swap1\n      pop\n        /* \"FundMe.sol\":1209:1210  0 */\n      0x00\n        /* \"FundMe.sol\":1185:1198  fundedAmounts */\n      0x02\n        /* \"FundMe.sol\":1185:1206  fundedAmounts[funder] */\n      0x00\n        /* \"FundMe.sol\":1199:1205  funder */\n      dup4\n        /* \"FundMe.sol\":1185:1206  fundedAmounts[funder] */\n      0xffffffffffffffffffffffffffffffffffffffff\n      and\n      0xffffffffffffffffffffffffffffffffffffffff\n      and\n      dup2\n      mstore\n      0x20\n      add\n      swap1\n      dup2\n      mstore\n      0x20\n      add\n      0x00\n      keccak256\n        /* \"FundMe.sol\":1185:1210  fundedAmounts[funder] = 0 */\n      dup2\n      swap1\n      sstore\n      pop\n        /* \"FundMe.sol\":1120:1259  {... */\n      pop\n        /* \"FundMe.sol\":1105:1118  funderIndex++ */\n      dup1\n      dup1\n      0x01\n      add\n      swap2\n      pop\n      pop\n        /* \"FundMe.sol\":1048:1259  for (uint funderIndex = 0; funderIndex < funders.length; funderIndex++) {... */\n      jump(tag_19)\n    tag_20:\n      pop\n        /* \"FundMe.sol\":1327:1328  0 */\n      0x00\n        /* \"FundMe.sol\":1313:1329  new address[](0) */\n      0xffffffffffffffff\n      dup2\n      gt\n      iszero\n      tag_26\n      jumpi\n      tag_27\n      tag_28\n      jump\t// in\n    tag_27:\n    tag_26:\n      mload(0x40)\n      swap1\n      dup1\n      dup3\n      mstore\n      dup1\n      0x20\n      mul\n      0x20\n      add\n      dup3\n      add\n      0x40\n      mstore\n      dup1\n      iszero\n      tag_29\n      jumpi\n      dup2\n      0x20\n      add\n      0x20\n      dup3\n      mul\n      dup1\n      calldatasize\n      dup4\n      calldatacopy\n      dup1\n      dup3\n      add\n      swap2\n      pop\n      pop\n      swap1\n      pop\n    tag_29:\n      pop\n        /* \"FundMe.sol\":1303:1310  funders */\n      0x01\n        /* \"FundMe.sol\":1303:1329  funders = new address[](0) */\n      swap1\n      dup1\n      mload\n      swap1\n      0x20\n      add\n      swap1\n      tag_30\n      swap3\n      swap2\n      swap1\n      tag_31\n      jump\t// in\n    tag_30:\n      pop\n        /* \"FundMe.sol\":1373:1389  bool callSuccess */\n      0x00\n        /* \"FundMe.sol\":1402:1412  msg.sender */\n      caller\n        /* \"FundMe.sol\":1394:1418  payable(msg.sender).call */\n      0xffffffffffffffffffffffffffffffffffffffff\n      and\n        /* \"FundMe.sol\":1425:1446  address(this).balance */\n      selfbalance\n        /* \"FundMe.sol\":1394:1451  payable(msg.sender).call{value:address(this).balance}(\"\") */\n      mload(0x40)\n      tag_32\n      swap1\n      tag_33\n      jump\t// in\n    tag_32:\n      0x00\n      mload(0x40)\n      dup1\n      dup4\n      sub\n      dup2\n      dup6\n      dup8\n      gas\n      call\n      swap3\n      pop\n      pop\n      pop\n      returndatasize\n      dup1\n      0x00\n      dup2\n      eq\n      tag_36\n      jumpi\n      mload(0x40)\n      swap2\n      pop\n      and(add(returndatasize, 0x3f), not(0x1f))\n      dup3\n      add\n      0x40\n      mstore\n      returndatasize\n      dup3\n      mstore\n      returndatasize\n      0x00\n      0x20\n      dup5\n      add\n      returndatacopy\n      jump(tag_35)\n    tag_36:\n      0x60\n      swap2\n      pop\n    tag_35:\n      pop\n        /* \"FundMe.sol\":1372:1451  (bool callSuccess,) = payable(msg.sender).call{value:address(this).balance}(\"\") */\n      pop\n      swap1\n      pop\n        /* \"FundMe.sol\":1469:1480  callSuccess */\n      dup1\n        /* \"FundMe.sol\":1461:1509  require(callSuccess, \"Transaction Unsuccessful\") */\n      tag_37\n      jumpi\n      mload(0x40)\n      0x08c379a000000000000000000000000000000000000000000000000000000000\n      dup2\n      mstore\n      0x04\n      add\n      tag_38\n      swap1\n      tag_39\n      jump\t// in\n    tag_38:\n      mload(0x40)\n      dup1\n      swap2\n      sub\n      swap1\n      revert\n    tag_37:\n        /* \"FundMe.sol\":960:1516  {... */\n      pop\n        /* \"FundMe.sol\":933:1516  function withdraw() public {... */\n      jump\t// out\n        /* \"FundMe.sol\":462:482  address public owner */\n    tag_10:\n      0x03\n      0x00\n      swap1\n      sload\n      swap1\n      0x0100\n      exp\n      swap1\n      div\n      0xffffffffffffffffffffffffffffffffffffffff\n      and\n      dup2\n      jump\t// out\n        /* \"FundMe.sol\":710:927  function fund() public payable{... */\n    tag_14:\n        /* \"FundMe.sol\":791:801  minimumUSD */\n      sload(0x00)\n        /* \"FundMe.sol\":758:787  msg.value.getConversionRate() */\n      tag_41\n        /* \"FundMe.sol\":758:767  msg.value */\n      callvalue\n        /* \"FundMe.sol\":758:785  msg.value.getConversionRate */\n      tag_42\n        /* \"FundMe.sol\":758:787  msg.value.getConversionRate() */\n      jump\t// in\n    tag_41:\n        /* \"FundMe.sol\":758:801  msg.value.getConversionRate() >= minimumUSD */\n      lt\n      iszero\n        /* \"FundMe.sol\":750:848  require(msg.value.getConversionRate() >= minimumUSD, \"Didn't send enough ether. Minimum USD 5.00\") */\n      tag_43\n      jumpi\n      mload(0x40)\n      0x08c379a000000000000000000000000000000000000000000000000000000000\n      dup2\n      mstore\n      0x04\n      add\n      tag_44\n      swap1\n      tag_45\n      jump\t// in\n    tag_44:\n      mload(0x40)\n      dup1\n      swap2\n      sub\n      swap1\n      revert\n    tag_43:\n        /* \"FundMe.sol\":887:916  msg.value.getConversionRate() */\n      tag_46\n        /* \"FundMe.sol\":887:896  msg.value */\n      callvalue\n        /* \"FundMe.sol\":887:914  msg.value.getConversionRate */\n      tag_42\n        /* \"FundMe.sol\":887:916  msg.value.getConversionRate() */\n      jump\t// in\n    tag_46:\n        /* \"FundMe.sol\":858:871  fundedAmounts */\n      0x02\n        /* \"FundMe.sol\":858:883  fundedAmounts[msg.sender] */\n      0x00\n        /* \"FundMe.sol\":872:882  msg.sender */\n      caller\n        /* \"FundMe.sol\":858:883  fundedAmounts[msg.sender] */\n      0xffffffffffffffffffffffffffffffffffffffff\n      and\n      0xffffffffffffffffffffffffffffffffffffffff\n      and\n      dup2\n      mstore\n      0x20\n      add\n      swap1\n      dup2\n      mstore\n      0x20\n      add\n      0x00\n      keccak256\n      0x00\n        /* \"FundMe.sol\":858:916  fundedAmounts[msg.sender] += msg.value.getConversionRate() */\n      dup3\n      dup3\n      sload\n      tag_47\n      swap2\n      swap1\n      tag_48\n      jump\t// in\n    tag_47:\n      swap3\n      pop\n      pop\n      dup2\n      swap1\n      sstore\n      pop\n        /* \"FundMe.sol\":710:927  function fund() public payable{... */\n      jump\t// out\n        /* \"PriceConverter.sol\":720:971  function getConversionRate (uint256 ethValue) internal view returns (uint256) {... */\n    tag_42:\n        /* \"PriceConverter.sol\":789:796  uint256 */\n      0x00\n        /* \"PriceConverter.sol\":808:824  uint256 ethPrice */\n      dup1\n        /* \"PriceConverter.sol\":827:837  getPrice() */\n      tag_50\n        /* \"PriceConverter.sol\":827:835  getPrice */\n      tag_51\n        /* \"PriceConverter.sol\":827:837  getPrice() */\n      jump\t// in\n    tag_50:\n        /* \"PriceConverter.sol\":808:837  uint256 ethPrice = getPrice() */\n      swap1\n      pop\n        /* \"PriceConverter.sol\":884:900  uint256 usdValue */\n      0x00\n        /* \"PriceConverter.sol\":934:938  1e18 */\n      0x0de0b6b3a7640000\n        /* \"PriceConverter.sol\":922:930  ethPrice */\n      dup3\n        /* \"PriceConverter.sol\":911:919  ethValue */\n      dup6\n        /* \"PriceConverter.sol\":911:930  ethValue * ethPrice */\n      tag_52\n      swap2\n      swap1\n      tag_53\n      jump\t// in\n    tag_52:\n        /* \"PriceConverter.sol\":903:938  uint256(ethValue * ethPrice) / 1e18 */\n      tag_54\n      swap2\n      swap1\n      tag_55\n      jump\t// in\n    tag_54:\n        /* \"PriceConverter.sol\":884:938  uint256 usdValue = uint256(ethValue * ethPrice) / 1e18 */\n      swap1\n      pop\n        /* \"PriceConverter.sol\":956:964  usdValue */\n      dup1\n        /* \"PriceConverter.sol\":949:964  return usdValue */\n      swap3\n      pop\n      pop\n      pop\n        /* \"PriceConverter.sol\":720:971  function getConversionRate (uint256 ethValue) internal view returns (uint256) {... */\n      swap2\n      swap1\n      pop\n      jump\t// out\n        /* \"PriceConverter.sol\":206:714  function getPrice () internal view returns (uint256) {... */\n    tag_51:\n        /* \"PriceConverter.sol\":250:257  uint256 */\n      0x00\n        /* \"PriceConverter.sol\":423:453  AggregatorV3Interface dataFeed */\n      dup1\n        /* \"PriceConverter.sol\":491:533  0x694AA1769357215DE4FAC081bf1f309aDC325306 */\n      0x694aa1769357215de4fac081bf1f309adc325306\n        /* \"PriceConverter.sol\":423:543  AggregatorV3Interface dataFeed = AggregatorV3Interface(... */\n      swap1\n      pop\n        /* \"PriceConverter.sol\":556:566  int answer */\n      0x00\n        /* \"PriceConverter.sol\":573:581  dataFeed */\n      dup2\n        /* \"PriceConverter.sol\":573:597  dataFeed.latestRoundData */\n      0xffffffffffffffffffffffffffffffffffffffff\n      and\n      0xfeaf968c\n        /* \"PriceConverter.sol\":573:599  dataFeed.latestRoundData() */\n      mload(0x40)\n      dup2\n      0xffffffff\n      and\n      0xe0\n      shl\n      dup2\n      mstore\n      0x04\n      add\n      0xa0\n      mload(0x40)\n      dup1\n      dup4\n      sub\n      dup2\n      dup7\n      gas\n      staticcall\n      iszero\n      dup1\n      iszero\n      tag_58\n      jumpi\n      returndatasize\n      0x00\n      dup1\n      returndatacopy\n      revert(0x00, returndatasize)\n    tag_58:\n      pop\n      pop\n      pop\n      pop\n      mload(0x40)\n      returndatasize\n      not(0x1f)\n      0x1f\n      dup3\n      add\n      and\n      dup3\n      add\n      dup1\n      0x40\n      mstore\n      pop\n      dup2\n      add\n      swap1\n      tag_59\n      swap2\n      swap1\n      tag_60\n      jump\t// in\n    tag_59:\n        /* \"PriceConverter.sol\":554:599  (,int answer,,,) = dataFeed.latestRoundData() */\n      pop\n      pop\n      pop\n      swap2\n      pop\n      pop\n        /* \"PriceConverter.sol\":634:638  1e10 */\n      0x02540be400\n        /* \"PriceConverter.sol\":624:630  answer */\n      dup2\n        /* \"PriceConverter.sol\":616:638  uint256(answer) * 1e10 */\n      tag_61\n      swap2\n      swap1\n      tag_53\n      jump\t// in\n    tag_61:\n        /* \"PriceConverter.sol\":609:638  return uint256(answer) * 1e10 */\n      swap3\n      pop\n      pop\n      pop\n        /* \"PriceConverter.sol\":206:714  function getPrice () internal view returns (uint256) {... */\n      swap1\n      jump\t// out\n    tag_31:\n      dup3\n      dup1\n      sload\n      dup3\n      dup3\n      sstore\n      swap1\n      0x00\n      mstore\n      keccak256(0x00, 0x20)\n      swap1\n      dup2\n      add\n      swap3\n      dup3\n      iszero\n      tag_62\n      jumpi\n      swap2\n      0x20\n      mul\n      dup3\n      add\n    tag_63:\n      dup3\n      dup2\n      gt\n      iszero\n      tag_64\n      jumpi\n      dup3\n      mload\n      dup3\n      exp(0x0100, 0x00)\n      dup2\n      sload\n      dup2\n      0xffffffffffffffffffffffffffffffffffffffff\n      mul\n      not\n      and\n      swap1\n      dup4\n      0xffffffffffffffffffffffffffffffffffffffff\n      and\n      mul\n      or\n      swap1\n      sstore\n      pop\n      swap2\n      0x20\n      add\n      swap2\n      swap1\n      0x01\n      add\n      swap1\n      jump(tag_63)\n    tag_64:\n    tag_62:\n      pop\n      swap1\n      pop\n      tag_65\n      swap2\n      swap1\n      tag_66\n      jump\t// in\n    tag_65:\n      pop\n      swap1\n      jump\t// out\n    tag_66:\n    tag_67:\n      dup1\n      dup3\n      gt\n      iszero\n      tag_68\n      jumpi\n      0x00\n      dup2\n      0x00\n      swap1\n      sstore\n      pop\n      0x01\n      add\n      jump(tag_67)\n    tag_68:\n      pop\n      swap1\n      jump\t// out\n        /* \"#utility.yul\":7:133   */\n    tag_69:\n        /* \"#utility.yul\":44:51   */\n      0x00\n        /* \"#utility.yul\":84:126   */\n      0xffffffffffffffffffffffffffffffffffffffff\n        /* \"#utility.yul\":77:82   */\n      dup3\n        /* \"#utility.yul\":73:127   */\n      and\n        /* \"#utility.yul\":62:127   */\n      swap1\n      pop\n        /* \"#utility.yul\":7:133   */\n      swap2\n      swap1\n      pop\n      jump\t// out\n        /* \"#utility.yul\":139:235   */\n    tag_70:\n        /* \"#utility.yul\":176:183   */\n      0x00\n        /* \"#utility.yul\":205:229   */\n      tag_99\n        /* \"#utility.yul\":223:228   */\n      dup3\n        /* \"#utility.yul\":205:229   */\n      tag_69\n      jump\t// in\n    tag_99:\n        /* \"#utility.yul\":194:229   */\n      swap1\n      pop\n        /* \"#utility.yul\":139:235   */\n      swap2\n      swap1\n      pop\n      jump\t// out\n        /* \"#utility.yul\":241:359   */\n    tag_71:\n        /* \"#utility.yul\":328:352   */\n      tag_101\n        /* \"#utility.yul\":346:351   */\n      dup2\n        /* \"#utility.yul\":328:352   */\n      tag_70\n      jump\t// in\n    tag_101:\n        /* \"#utility.yul\":323:326   */\n      dup3\n        /* \"#utility.yul\":316:353   */\n      mstore\n        /* \"#utility.yul\":241:359   */\n      pop\n      pop\n      jump\t// out\n        /* \"#utility.yul\":365:587   */\n    tag_12:\n        /* \"#utility.yul\":458:462   */\n      0x00\n        /* \"#utility.yul\":496:498   */\n      0x20\n        /* \"#utility.yul\":485:494   */\n      dup3\n        /* \"#utility.yul\":481:499   */\n      add\n        /* \"#utility.yul\":473:499   */\n      swap1\n      pop\n        /* \"#utility.yul\":509:580   */\n      tag_103\n        /* \"#utility.yul\":577:578   */\n      0x00\n        /* \"#utility.yul\":566:575   */\n      dup4\n        /* \"#utility.yul\":562:579   */\n      add\n        /* \"#utility.yul\":553:559   */\n      dup5\n        /* \"#utility.yul\":509:580   */\n      tag_71\n      jump\t// in\n    tag_103:\n        /* \"#utility.yul\":365:587   */\n      swap3\n      swap2\n      pop\n      pop\n      jump\t// out\n        /* \"#utility.yul\":593:762   */\n    tag_72:\n        /* \"#utility.yul\":677:688   */\n      0x00\n        /* \"#utility.yul\":711:717   */\n      dup3\n        /* \"#utility.yul\":706:709   */\n      dup3\n        /* \"#utility.yul\":699:718   */\n      mstore\n        /* \"#utility.yul\":751:755   */\n      0x20\n        /* \"#utility.yul\":746:749   */\n      dup3\n        /* \"#utility.yul\":742:756   */\n      add\n        /* \"#utility.yul\":727:756   */\n      swap1\n      pop\n        /* \"#utility.yul\":593:762   */\n      swap3\n      swap2\n      pop\n      pop\n      jump\t// out\n        /* \"#utility.yul\":768:990   */\n    tag_73:\n        /* \"#utility.yul\":908:942   */\n      0x43616e206f6e6c792062652077697468647261776e20627920746865204f776e\n        /* \"#utility.yul\":904:905   */\n      0x00\n        /* \"#utility.yul\":896:902   */\n      dup3\n        /* \"#utility.yul\":892:906   */\n      add\n        /* \"#utility.yul\":885:943   */\n      mstore\n        /* \"#utility.yul\":977:982   */\n      0x6572210000000000000000000000000000000000000000000000000000000000\n        /* \"#utility.yul\":972:974   */\n      0x20\n        /* \"#utility.yul\":964:970   */\n      dup3\n        /* \"#utility.yul\":960:975   */\n      add\n        /* \"#utility.yul\":953:983   */\n      mstore\n        /* \"#utility.yul\":768:990   */\n      pop\n      jump\t// out\n        /* \"#utility.yul\":996:1362   */\n    tag_74:\n        /* \"#utility.yul\":1138:1141   */\n      0x00\n        /* \"#utility.yul\":1159:1226   */\n      tag_107\n        /* \"#utility.yul\":1223:1225   */\n      0x23\n        /* \"#utility.yul\":1218:1221   */\n      dup4\n        /* \"#utility.yul\":1159:1226   */\n      tag_72\n      jump\t// in\n    tag_107:\n        /* \"#utility.yul\":1152:1226   */\n      swap2\n      pop\n        /* \"#utility.yul\":1235:1328   */\n      tag_108\n        /* \"#utility.yul\":1324:1327   */\n      dup3\n        /* \"#utility.yul\":1235:1328   */\n      tag_73\n      jump\t// in\n    tag_108:\n        /* \"#utility.yul\":1353:1355   */\n      0x40\n        /* \"#utility.yul\":1348:1351   */\n      dup3\n        /* \"#utility.yul\":1344:1356   */\n      add\n        /* \"#utility.yul\":1337:1356   */\n      swap1\n      pop\n        /* \"#utility.yul\":996:1362   */\n      swap2\n      swap1\n      pop\n      jump\t// out\n        /* \"#utility.yul\":1368:1787   */\n    tag_18:\n        /* \"#utility.yul\":1534:1538   */\n      0x00\n        /* \"#utility.yul\":1572:1574   */\n      0x20\n        /* \"#utility.yul\":1561:1570   */\n      dup3\n        /* \"#utility.yul\":1557:1575   */\n      add\n        /* \"#utility.yul\":1549:1575   */\n      swap1\n      pop\n        /* \"#utility.yul\":1621:1630   */\n      dup2\n        /* \"#utility.yul\":1615:1619   */\n      dup2\n        /* \"#utility.yul\":1611:1631   */\n      sub\n        /* \"#utility.yul\":1607:1608   */\n      0x00\n        /* \"#utility.yul\":1596:1605   */\n      dup4\n        /* \"#utility.yul\":1592:1609   */\n      add\n        /* \"#utility.yul\":1585:1632   */\n      mstore\n        /* \"#utility.yul\":1649:1780   */\n      tag_110\n        /* \"#utility.yul\":1775:1779   */\n      dup2\n        /* \"#utility.yul\":1649:1780   */\n      tag_74\n      jump\t// in\n    tag_110:\n        /* \"#utility.yul\":1641:1780   */\n      swap1\n      pop\n        /* \"#utility.yul\":1368:1787   */\n      swap2\n      swap1\n      pop\n      jump\t// out\n        /* \"#utility.yul\":1793:1973   */\n    tag_24:\n        /* \"#utility.yul\":1841:1918   */\n      0x4e487b7100000000000000000000000000000000000000000000000000000000\n        /* \"#utility.yul\":1838:1839   */\n      0x00\n        /* \"#utility.yul\":1831:1919   */\n      mstore\n        /* \"#utility.yul\":1938:1942   */\n      0x32\n        /* \"#utility.yul\":1935:1936   */\n      0x04\n        /* \"#utility.yul\":1928:1943   */\n      mstore\n        /* \"#utility.yul\":1962:1966   */\n      0x24\n        /* \"#utility.yul\":1959:1960   */\n      0x00\n        /* \"#utility.yul\":1952:1967   */\n      revert\n        /* \"#utility.yul\":1979:2159   */\n    tag_28:\n        /* \"#utility.yul\":2027:2104   */\n      0x4e487b7100000000000000000000000000000000000000000000000000000000\n        /* \"#utility.yul\":2024:2025   */\n      0x00\n        /* \"#utility.yul\":2017:2105   */\n      mstore\n        /* \"#utility.yul\":2124:2128   */\n      0x41\n        /* \"#utility.yul\":2121:2122   */\n      0x04\n        /* \"#utility.yul\":2114:2129   */\n      mstore\n        /* \"#utility.yul\":2148:2152   */\n      0x24\n        /* \"#utility.yul\":2145:2146   */\n      0x00\n        /* \"#utility.yul\":2138:2153   */\n      revert\n        /* \"#utility.yul\":2165:2312   */\n    tag_75:\n        /* \"#utility.yul\":2266:2277   */\n      0x00\n        /* \"#utility.yul\":2303:2306   */\n      dup2\n        /* \"#utility.yul\":2288:2306   */\n      swap1\n      pop\n        /* \"#utility.yul\":2165:2312   */\n      swap3\n      swap2\n      pop\n      pop\n      jump\t// out\n        /* \"#utility.yul\":2318:2432   */\n    tag_76:\n      pop\n      jump\t// out\n        /* \"#utility.yul\":2438:2836   */\n    tag_77:\n        /* \"#utility.yul\":2597:2600   */\n      0x00\n        /* \"#utility.yul\":2618:2701   */\n      tag_116\n        /* \"#utility.yul\":2699:2700   */\n      0x00\n        /* \"#utility.yul\":2694:2697   */\n      dup4\n        /* \"#utility.yul\":2618:2701   */\n      tag_75\n      jump\t// in\n    tag_116:\n        /* \"#utility.yul\":2611:2701   */\n      swap2\n      pop\n        /* \"#utility.yul\":2710:2803   */\n      tag_117\n        /* \"#utility.yul\":2799:2802   */\n      dup3\n        /* \"#utility.yul\":2710:2803   */\n      tag_76\n      jump\t// in\n    tag_117:\n        /* \"#utility.yul\":2828:2829   */\n      0x00\n        /* \"#utility.yul\":2823:2826   */\n      dup3\n        /* \"#utility.yul\":2819:2830   */\n      add\n        /* \"#utility.yul\":2812:2830   */\n      swap1\n      pop\n        /* \"#utility.yul\":2438:2836   */\n      swap2\n      swap1\n      pop\n      jump\t// out\n        /* \"#utility.yul\":2842:3221   */\n    tag_33:\n        /* \"#utility.yul\":3026:3029   */\n      0x00\n        /* \"#utility.yul\":3048:3195   */\n      tag_119\n        /* \"#utility.yul\":3191:3194   */\n      dup3\n        /* \"#utility.yul\":3048:3195   */\n      tag_77\n      jump\t// in\n    tag_119:\n        /* \"#utility.yul\":3041:3195   */\n      swap2\n      pop\n        /* \"#utility.yul\":3212:3215   */\n      dup2\n        /* \"#utility.yul\":3205:3215   */\n      swap1\n      pop\n        /* \"#utility.yul\":2842:3221   */\n      swap2\n      swap1\n      pop\n      jump\t// out\n        /* \"#utility.yul\":3227:3401   */\n    tag_78:\n        /* \"#utility.yul\":3367:3393   */\n      0x5472616e73616374696f6e20556e7375636365737366756c0000000000000000\n        /* \"#utility.yul\":3363:3364   */\n      0x00\n        /* \"#utility.yul\":3355:3361   */\n      dup3\n        /* \"#utility.yul\":3351:3365   */\n      add\n        /* \"#utility.yul\":3344:3394   */\n      mstore\n        /* \"#utility.yul\":3227:3401   */\n      pop\n      jump\t// out\n        /* \"#utility.yul\":3407:3773   */\n    tag_79:\n        /* \"#utility.yul\":3549:3552   */\n      0x00\n        /* \"#utility.yul\":3570:3637   */\n      tag_122\n        /* \"#utility.yul\":3634:3636   */\n      0x18\n        /* \"#utility.yul\":3629:3632   */\n      dup4\n        /* \"#utility.yul\":3570:3637   */\n      tag_72\n      jump\t// in\n    tag_122:\n        /* \"#utility.yul\":3563:3637   */\n      swap2\n      pop\n        /* \"#utility.yul\":3646:3739   */\n      tag_123\n        /* \"#utility.yul\":3735:3738   */\n      dup3\n        /* \"#utility.yul\":3646:3739   */\n      tag_78\n      jump\t// in\n    tag_123:\n        /* \"#utility.yul\":3764:3766   */\n      0x20\n        /* \"#utility.yul\":3759:3762   */\n      dup3\n        /* \"#utility.yul\":3755:3767   */\n      add\n        /* \"#utility.yul\":3748:3767   */\n      swap1\n      pop\n        /* \"#utility.yul\":3407:3773   */\n      swap2\n      swap1\n      pop\n      jump\t// out\n        /* \"#utility.yul\":3779:4198   */\n    tag_39:\n        /* \"#utility.yul\":3945:3949   */\n      0x00\n        /* \"#utility.yul\":3983:3985   */\n      0x20\n        /* \"#utility.yul\":3972:3981   */\n      dup3\n        /* \"#utility.yul\":3968:3986   */\n      add\n        /* \"#utility.yul\":3960:3986   */\n      swap1\n      pop\n        /* \"#utility.yul\":4032:4041   */\n      dup2\n        /* \"#utility.yul\":4026:4030   */\n      dup2\n        /* \"#utility.yul\":4022:4042   */\n      sub\n        /* \"#utility.yul\":4018:4019   */\n      0x00\n        /* \"#utility.yul\":4007:4016   */\n      dup4\n        /* \"#utility.yul\":4003:4020   */\n      add\n        /* \"#utility.yul\":3996:4043   */\n      mstore\n        /* \"#utility.yul\":4060:4191   */\n      tag_125\n        /* \"#utility.yul\":4186:4190   */\n      dup2\n        /* \"#utility.yul\":4060:4191   */\n      tag_79\n      jump\t// in\n    tag_125:\n        /* \"#utility.yul\":4052:4191   */\n      swap1\n      pop\n        /* \"#utility.yul\":3779:4198   */\n      swap2\n      swap1\n      pop\n      jump\t// out\n        /* \"#utility.yul\":4204:4433   */\n    tag_80:\n        /* \"#utility.yul\":4344:4378   */\n      0x4469646e27742073656e6420656e6f7567682065746865722e204d696e696d75\n        /* \"#utility.yul\":4340:4341   */\n      0x00\n        /* \"#utility.yul\":4332:4338   */\n      dup3\n        /* \"#utility.yul\":4328:4342   */\n      add\n        /* \"#utility.yul\":4321:4379   */\n      mstore\n        /* \"#utility.yul\":4413:4425   */\n      0x6d2055534420352e303000000000000000000000000000000000000000000000\n        /* \"#utility.yul\":4408:4410   */\n      0x20\n        /* \"#utility.yul\":4400:4406   */\n      dup3\n        /* \"#utility.yul\":4396:4411   */\n      add\n        /* \"#utility.yul\":4389:4426   */\n      mstore\n        /* \"#utility.yul\":4204:4433   */\n      pop\n      jump\t// out\n        /* \"#utility.yul\":4439:4805   */\n    tag_81:\n        /* \"#utility.yul\":4581:4584   */\n      0x00\n        /* \"#utility.yul\":4602:4669   */\n      tag_128\n        /* \"#utility.yul\":4666:4668   */\n      0x2a\n        /* \"#utility.yul\":4661:4664   */\n      dup4\n        /* \"#utility.yul\":4602:4669   */\n      tag_72\n      jump\t// in\n    tag_128:\n        /* \"#utility.yul\":4595:4669   */\n      swap2\n      pop\n        /* \"#utility.yul\":4678:4771   */\n      tag_129\n        /* \"#utility.yul\":4767:4770   */\n      dup3\n        /* \"#utility.yul\":4678:4771   */\n      tag_80\n      jump\t// in\n    tag_129:\n        /* \"#utility.yul\":4796:4798   */\n      0x40\n        /* \"#utility.yul\":4791:4794   */\n      dup3\n        /* \"#utility.yul\":4787:4799   */\n      add\n        /* \"#utility.yul\":4780:4799   */\n      swap1\n      pop\n        /* \"#utility.yul\":4439:4805   */\n      swap2\n      swap1\n      pop\n      jump\t// out\n        /* \"#utility.yul\":4811:5230   */\n    tag_45:\n        /* \"#utility.yul\":4977:4981   */\n      0x00\n        /* \"#utility.yul\":5015:5017   */\n      0x20\n        /* \"#utility.yul\":5004:5013   */\n      dup3\n        /* \"#utility.yul\":5000:5018   */\n      add\n        /* \"#utility.yul\":4992:5018   */\n      swap1\n      pop\n        /* \"#utility.yul\":5064:5073   */\n      dup2\n        /* \"#utility.yul\":5058:5062   */\n      dup2\n        /* \"#utility.yul\":5054:5074   */\n      sub\n        /* \"#utility.yul\":5050:5051   */\n      0x00\n        /* \"#utility.yul\":5039:5048   */\n      dup4\n        /* \"#utility.yul\":5035:5052   */\n      add\n        /* \"#utility.yul\":5028:5075   */\n      mstore\n        /* \"#utility.yul\":5092:5223   */\n      tag_131\n        /* \"#utility.yul\":5218:5222   */\n      dup2\n        /* \"#utility.yul\":5092:5223   */\n      tag_81\n      jump\t// in\n    tag_131:\n        /* \"#utility.yul\":5084:5223   */\n      swap1\n      pop\n        /* \"#utility.yul\":4811:5230   */\n      swap2\n      swap1\n      pop\n      jump\t// out\n        /* \"#utility.yul\":5236:5313   */\n    tag_82:\n        /* \"#utility.yul\":5273:5280   */\n      0x00\n        /* \"#utility.yul\":5302:5307   */\n      dup2\n        /* \"#utility.yul\":5291:5307   */\n      swap1\n      pop\n        /* \"#utility.yul\":5236:5313   */\n      swap2\n      swap1\n      pop\n      jump\t// out\n        /* \"#utility.yul\":5319:5499   */\n    tag_83:\n        /* \"#utility.yul\":5367:5444   */\n      0x4e487b7100000000000000000000000000000000000000000000000000000000\n        /* \"#utility.yul\":5364:5365   */\n      0x00\n        /* \"#utility.yul\":5357:5445   */\n      mstore\n        /* \"#utility.yul\":5464:5468   */\n      0x11\n        /* \"#utility.yul\":5461:5462   */\n      0x04\n        /* \"#utility.yul\":5454:5469   */\n      mstore\n        /* \"#utility.yul\":5488:5492   */\n      0x24\n        /* \"#utility.yul\":5485:5486   */\n      0x00\n        /* \"#utility.yul\":5478:5493   */\n      revert\n        /* \"#utility.yul\":5505:5696   */\n    tag_48:\n        /* \"#utility.yul\":5545:5548   */\n      0x00\n        /* \"#utility.yul\":5564:5584   */\n      tag_135\n        /* \"#utility.yul\":5582:5583   */\n      dup3\n        /* \"#utility.yul\":5564:5584   */\n      tag_82\n      jump\t// in\n    tag_135:\n        /* \"#utility.yul\":5559:5584   */\n      swap2\n      pop\n        /* \"#utility.yul\":5598:5618   */\n      tag_136\n        /* \"#utility.yul\":5616:5617   */\n      dup4\n        /* \"#utility.yul\":5598:5618   */\n      tag_82\n      jump\t// in\n    tag_136:\n        /* \"#utility.yul\":5593:5618   */\n      swap3\n      pop\n        /* \"#utility.yul\":5641:5642   */\n      dup3\n        /* \"#utility.yul\":5638:5639   */\n      dup3\n        /* \"#utility.yul\":5634:5643   */\n      add\n        /* \"#utility.yul\":5627:5643   */\n      swap1\n      pop\n        /* \"#utility.yul\":5662:5665   */\n      dup1\n        /* \"#utility.yul\":5659:5660   */\n      dup3\n        /* \"#utility.yul\":5656:5666   */\n      gt\n        /* \"#utility.yul\":5653:5689   */\n      iszero\n      tag_137\n      jumpi\n        /* \"#utility.yul\":5669:5687   */\n      tag_138\n      tag_83\n      jump\t// in\n    tag_138:\n        /* \"#utility.yul\":5653:5689   */\n    tag_137:\n        /* \"#utility.yul\":5505:5696   */\n      swap3\n      swap2\n      pop\n      pop\n      jump\t// out\n        /* \"#utility.yul\":5702:6112   */\n    tag_53:\n        /* \"#utility.yul\":5742:5749   */\n      0x00\n        /* \"#utility.yul\":5765:5785   */\n      tag_140\n        /* \"#utility.yul\":5783:5784   */\n      dup3\n        /* \"#utility.yul\":5765:5785   */\n      tag_82\n      jump\t// in\n    tag_140:\n        /* \"#utility.yul\":5760:5785   */\n      swap2\n      pop\n        /* \"#utility.yul\":5799:5819   */\n      tag_141\n        /* \"#utility.yul\":5817:5818   */\n      dup4\n        /* \"#utility.yul\":5799:5819   */\n      tag_82\n      jump\t// in\n    tag_141:\n        /* \"#utility.yul\":5794:5819   */\n      swap3\n      pop\n        /* \"#utility.yul\":5854:5855   */\n      dup3\n        /* \"#utility.yul\":5851:5852   */\n      dup3\n        /* \"#utility.yul\":5847:5856   */\n      mul\n        /* \"#utility.yul\":5876:5906   */\n      tag_142\n        /* \"#utility.yul\":5894:5905   */\n      dup2\n        /* \"#utility.yul\":5876:5906   */\n      tag_82\n      jump\t// in\n    tag_142:\n        /* \"#utility.yul\":5865:5906   */\n      swap2\n      pop\n        /* \"#utility.yul\":6055:6056   */\n      dup3\n        /* \"#utility.yul\":6046:6053   */\n      dup3\n        /* \"#utility.yul\":6042:6057   */\n      div\n        /* \"#utility.yul\":6039:6040   */\n      dup5\n        /* \"#utility.yul\":6036:6058   */\n      eq\n        /* \"#utility.yul\":6016:6017   */\n      dup4\n        /* \"#utility.yul\":6009:6018   */\n      iszero\n        /* \"#utility.yul\":5989:6072   */\n      or\n        /* \"#utility.yul\":5966:6105   */\n      tag_143\n      jumpi\n        /* \"#utility.yul\":6085:6103   */\n      tag_144\n      tag_83\n      jump\t// in\n    tag_144:\n        /* \"#utility.yul\":5966:6105   */\n    tag_143:\n        /* \"#utility.yul\":5750:6112   */\n      pop\n        /* \"#utility.yul\":5702:6112   */\n      swap3\n      swap2\n      pop\n      pop\n      jump\t// out\n        /* \"#utility.yul\":6118:6298   */\n    tag_84:\n        /* \"#utility.yul\":6166:6243   */\n      0x4e487b7100000000000000000000000000000000000000000000000000000000\n        /* \"#utility.yul\":6163:6164   */\n      0x00\n        /* \"#utility.yul\":6156:6244   */\n      mstore\n        /* \"#utility.yul\":6263:6267   */\n      0x12\n        /* \"#utility.yul\":6260:6261   */\n      0x04\n        /* \"#utility.yul\":6253:6268   */\n      mstore\n        /* \"#utility.yul\":6287:6291   */\n      0x24\n        /* \"#utility.yul\":6284:6285   */\n      0x00\n        /* \"#utility.yul\":6277:6292   */\n      revert\n        /* \"#utility.yul\":6304:6489   */\n    tag_55:\n        /* \"#utility.yul\":6344:6345   */\n      0x00\n        /* \"#utility.yul\":6361:6381   */\n      tag_147\n        /* \"#utility.yul\":6379:6380   */\n      dup3\n        /* \"#utility.yul\":6361:6381   */\n      tag_82\n      jump\t// in\n    tag_147:\n        /* \"#utility.yul\":6356:6381   */\n      swap2\n      pop\n        /* \"#utility.yul\":6395:6415   */\n      tag_148\n        /* \"#utility.yul\":6413:6414   */\n      dup4\n        /* \"#utility.yul\":6395:6415   */\n      tag_82\n      jump\t// in\n    tag_148:\n        /* \"#utility.yul\":6390:6415   */\n      swap3\n      pop\n        /* \"#utility.yul\":6434:6435   */\n      dup3\n        /* \"#utility.yul\":6424:6459   */\n      tag_149\n      jumpi\n        /* \"#utility.yul\":6439:6457   */\n      tag_150\n      tag_84\n      jump\t// in\n    tag_150:\n        /* \"#utility.yul\":6424:6459   */\n    tag_149:\n        /* \"#utility.yul\":6481:6482   */\n      dup3\n        /* \"#utility.yul\":6478:6479   */\n      dup3\n        /* \"#utility.yul\":6474:6483   */\n      div\n        /* \"#utility.yul\":6469:6483   */\n      swap1\n      pop\n        /* \"#utility.yul\":6304:6489   */\n      swap3\n      swap2\n      pop\n      pop\n      jump\t// out\n        /* \"#utility.yul\":6576:6693   */\n    tag_86:\n        /* \"#utility.yul\":6685:6686   */\n      0x00\n        /* \"#utility.yul\":6682:6683   */\n      dup1\n        /* \"#utility.yul\":6675:6687   */\n      revert\n        /* \"#utility.yul\":6822:6927   */\n    tag_88:\n        /* \"#utility.yul\":6858:6865   */\n      0x00\n        /* \"#utility.yul\":6898:6920   */\n      0xffffffffffffffffffff\n        /* \"#utility.yul\":6891:6896   */\n      dup3\n        /* \"#utility.yul\":6887:6921   */\n      and\n        /* \"#utility.yul\":6876:6921   */\n      swap1\n      pop\n        /* \"#utility.yul\":6822:6927   */\n      swap2\n      swap1\n      pop\n      jump\t// out\n        /* \"#utility.yul\":6933:7053   */\n    tag_89:\n        /* \"#utility.yul\":7005:7028   */\n      tag_156\n        /* \"#utility.yul\":7022:7027   */\n      dup2\n        /* \"#utility.yul\":7005:7028   */\n      tag_88\n      jump\t// in\n    tag_156:\n        /* \"#utility.yul\":6998:7003   */\n      dup2\n        /* \"#utility.yul\":6995:7029   */\n      eq\n        /* \"#utility.yul\":6985:7047   */\n      tag_157\n      jumpi\n        /* \"#utility.yul\":7043:7044   */\n      0x00\n        /* \"#utility.yul\":7040:7041   */\n      dup1\n        /* \"#utility.yul\":7033:7045   */\n      revert\n        /* \"#utility.yul\":6985:7047   */\n    tag_157:\n        /* \"#utility.yul\":6933:7053   */\n      pop\n      jump\t// out\n        /* \"#utility.yul\":7059:7200   */\n    tag_90:\n        /* \"#utility.yul\":7115:7120   */\n      0x00\n        /* \"#utility.yul\":7146:7152   */\n      dup2\n        /* \"#utility.yul\":7140:7153   */\n      mload\n        /* \"#utility.yul\":7131:7153   */\n      swap1\n      pop\n        /* \"#utility.yul\":7162:7194   */\n      tag_159\n        /* \"#utility.yul\":7188:7193   */\n      dup2\n        /* \"#utility.yul\":7162:7194   */\n      tag_89\n      jump\t// in\n    tag_159:\n        /* \"#utility.yul\":7059:7200   */\n      swap3\n      swap2\n      pop\n      pop\n      jump\t// out\n        /* \"#utility.yul\":7206:7282   */\n    tag_91:\n        /* \"#utility.yul\":7242:7249   */\n      0x00\n        /* \"#utility.yul\":7271:7276   */\n      dup2\n        /* \"#utility.yul\":7260:7276   */\n      swap1\n      pop\n        /* \"#utility.yul\":7206:7282   */\n      swap2\n      swap1\n      pop\n      jump\t// out\n        /* \"#utility.yul\":7288:7408   */\n    tag_92:\n        /* \"#utility.yul\":7360:7383   */\n      tag_162\n        /* \"#utility.yul\":7377:7382   */\n      dup2\n        /* \"#utility.yul\":7360:7383   */\n      tag_91\n      jump\t// in\n    tag_162:\n        /* \"#utility.yul\":7353:7358   */\n      dup2\n        /* \"#utility.yul\":7350:7384   */\n      eq\n        /* \"#utility.yul\":7340:7402   */\n      tag_163\n      jumpi\n        /* \"#utility.yul\":7398:7399   */\n      0x00\n        /* \"#utility.yul\":7395:7396   */\n      dup1\n        /* \"#utility.yul\":7388:7400   */\n      revert\n        /* \"#utility.yul\":7340:7402   */\n    tag_163:\n        /* \"#utility.yul\":7288:7408   */\n      pop\n      jump\t// out\n        /* \"#utility.yul\":7414:7555   */\n    tag_93:\n        /* \"#utility.yul\":7470:7475   */\n      0x00\n        /* \"#utility.yul\":7501:7507   */\n      dup2\n        /* \"#utility.yul\":7495:7508   */\n      mload\n        /* \"#utility.yul\":7486:7508   */\n      swap1\n      pop\n        /* \"#utility.yul\":7517:7549   */\n      tag_165\n        /* \"#utility.yul\":7543:7548   */\n      dup2\n        /* \"#utility.yul\":7517:7549   */\n      tag_92\n      jump\t// in\n    tag_165:\n        /* \"#utility.yul\":7414:7555   */\n      swap3\n      swap2\n      pop\n      pop\n      jump\t// out\n        /* \"#utility.yul\":7561:7683   */\n    tag_94:\n        /* \"#utility.yul\":7634:7658   */\n      tag_167\n        /* \"#utility.yul\":7652:7657   */\n      dup2\n        /* \"#utility.yul\":7634:7658   */\n      tag_82\n      jump\t// in\n    tag_167:\n        /* \"#utility.yul\":7627:7632   */\n      dup2\n        /* \"#utility.yul\":7624:7659   */\n      eq\n        /* \"#utility.yul\":7614:7677   */\n      tag_168\n      jumpi\n        /* \"#utility.yul\":7673:7674   */\n      0x00\n        /* \"#utility.yul\":7670:7671   */\n      dup1\n        /* \"#utility.yul\":7663:7675   */\n      revert\n        /* \"#utility.yul\":7614:7677   */\n    tag_168:\n        /* \"#utility.yul\":7561:7683   */\n      pop\n      jump\t// out\n        /* \"#utility.yul\":7689:7832   */\n    tag_95:\n        /* \"#utility.yul\":7746:7751   */\n      0x00\n        /* \"#utility.yul\":7777:7783   */\n      dup2\n        /* \"#utility.yul\":7771:7784   */\n      mload\n        /* \"#utility.yul\":7762:7784   */\n      swap1\n      pop\n        /* \"#utility.yul\":7793:7826   */\n      tag_170\n        /* \"#utility.yul\":7820:7825   */\n      dup2\n        /* \"#utility.yul\":7793:7826   */\n      tag_94\n      jump\t// in\n    tag_170:\n        /* \"#utility.yul\":7689:7832   */\n      swap3\n      swap2\n      pop\n      pop\n      jump\t// out\n        /* \"#utility.yul\":7838:8809   */\n    tag_60:\n        /* \"#utility.yul\":7941:7947   */\n      0x00\n        /* \"#utility.yul\":7949:7955   */\n      dup1\n        /* \"#utility.yul\":7957:7963   */\n      0x00\n        /* \"#utility.yul\":7965:7971   */\n      dup1\n        /* \"#utility.yul\":7973:7979   */\n      0x00\n        /* \"#utility.yul\":8022:8025   */\n      0xa0\n        /* \"#utility.yul\":8010:8019   */\n      dup7\n        /* \"#utility.yul\":8001:8008   */\n      dup9\n        /* \"#utility.yul\":7997:8020   */\n      sub\n        /* \"#utility.yul\":7993:8026   */\n      slt\n        /* \"#utility.yul\":7990:8110   */\n      iszero\n      tag_172\n      jumpi\n        /* \"#utility.yul\":8029:8108   */\n      tag_173\n      tag_86\n      jump\t// in\n    tag_173:\n        /* \"#utility.yul\":7990:8110   */\n    tag_172:\n        /* \"#utility.yul\":8149:8150   */\n      0x00\n        /* \"#utility.yul\":8174:8237   */\n      tag_174\n        /* \"#utility.yul\":8229:8236   */\n      dup9\n        /* \"#utility.yul\":8220:8226   */\n      dup3\n        /* \"#utility.yul\":8209:8218   */\n      dup10\n        /* \"#utility.yul\":8205:8227   */\n      add\n        /* \"#utility.yul\":8174:8237   */\n      tag_90\n      jump\t// in\n    tag_174:\n        /* \"#utility.yul\":8164:8237   */\n      swap6\n      pop\n        /* \"#utility.yul\":8120:8247   */\n      pop\n        /* \"#utility.yul\":8286:8288   */\n      0x20\n        /* \"#utility.yul\":8312:8375   */\n      tag_175\n        /* \"#utility.yul\":8367:8374   */\n      dup9\n        /* \"#utility.yul\":8358:8364   */\n      dup3\n        /* \"#utility.yul\":8347:8356   */\n      dup10\n        /* \"#utility.yul\":8343:8365   */\n      add\n        /* \"#utility.yul\":8312:8375   */\n      tag_93\n      jump\t// in\n    tag_175:\n        /* \"#utility.yul\":8302:8375   */\n      swap5\n      pop\n        /* \"#utility.yul\":8257:8385   */\n      pop\n        /* \"#utility.yul\":8424:8426   */\n      0x40\n        /* \"#utility.yul\":8450:8514   */\n      tag_176\n        /* \"#utility.yul\":8506:8513   */\n      dup9\n        /* \"#utility.yul\":8497:8503   */\n      dup3\n        /* \"#utility.yul\":8486:8495   */\n      dup10\n        /* \"#utility.yul\":8482:8504   */\n      add\n        /* \"#utility.yul\":8450:8514   */\n      tag_95\n      jump\t// in\n    tag_176:\n        /* \"#utility.yul\":8440:8514   */\n      swap4\n      pop\n        /* \"#utility.yul\":8395:8524   */\n      pop\n        /* \"#utility.yul\":8563:8565   */\n      0x60\n        /* \"#utility.yul\":8589:8653   */\n      tag_177\n        /* \"#utility.yul\":8645:8652   */\n      dup9\n        /* \"#utility.yul\":8636:8642   */\n      dup3\n        /* \"#utility.yul\":8625:8634   */\n      dup10\n        /* \"#utility.yul\":8621:8643   */\n      add\n        /* \"#utility.yul\":8589:8653   */\n      tag_95\n      jump\t// in\n    tag_177:\n        /* \"#utility.yul\":8579:8653   */\n      swap3\n      pop\n        /* \"#utility.yul\":8534:8663   */\n      pop\n        /* \"#utility.yul\":8702:8705   */\n      0x80\n        /* \"#utility.yul\":8729:8792   */\n      tag_178\n        /* \"#utility.yul\":8784:8791   */\n      dup9\n        /* \"#utility.yul\":8775:8781   */\n      dup3\n        /* \"#utility.yul\":8764:8773   */\n      dup10\n        /* \"#utility.yul\":8760:8782   */\n      add\n        /* \"#utility.yul\":8729:8792   */\n      tag_90\n      jump\t// in\n    tag_178:\n        /* \"#utility.yul\":8719:8792   */\n      swap2\n      pop\n        /* \"#utility.yul\":8673:8802   */\n      pop\n        /* \"#utility.yul\":7838:8809   */\n      swap3\n      swap6\n      pop\n      swap3\n      swap6\n      swap1\n      swap4\n      pop\n      jump\t// out\n\n    auxdata: 0xa26469706673582212204d5f69e9eff85a01ec11964c76cee57fc5c933d2adda15adfc3b4acd7a79c1c464736f6c63430008180033\n}\n",
				"bytecode": {
					"linkReferences": {},
					"object": "6080604052674563918244f400005f5534801561001a575f80fd5b503360035f6101000a81548173ffffffffffffffffffffffffffffffffffffffff021916908373ffffffffffffffffffffffffffffffffffffffff1602179055506109e1806100685f395ff3fe608060405260043610610033575f3560e01c80633ccfd60b146100375780638da5cb5b1461004d578063b60d428814610077575b5f80fd5b348015610042575f80fd5b5061004b610081565b005b348015610058575f80fd5b506100616102b9565b60405161006e9190610545565b60405180910390f35b61007f6102de565b005b60035f9054906101000a900473ffffffffffffffffffffffffffffffffffffffff1673ffffffffffffffffffffffffffffffffffffffff163373ffffffffffffffffffffffffffffffffffffffff1614610110576040517f08c379a0000000000000000000000000000000000000000000000000000000008152600401610107906105de565b60405180910390fd5b5f5b6001805490508110156101ae575f60018281548110610134576101336105fc565b5b905f5260205f20015f9054906101000a900473ffffffffffffffffffffffffffffffffffffffff1690505f60025f8373ffffffffffffffffffffffffffffffffffffffff1673ffffffffffffffffffffffffffffffffffffffff1681526020019081526020015f2081905550508080600101915050610112565b505f67ffffffffffffffff8111156101c9576101c8610629565b5b6040519080825280602002602001820160405280156101f75781602001602082028036833780820191505090505b506001908051906020019061020d929190610464565b505f3373ffffffffffffffffffffffffffffffffffffffff164760405161023390610683565b5f6040518083038185875af1925050503d805f811461026d576040519150601f19603f3d011682016040523d82523d5f602084013e610272565b606091505b50509050806102b6576040517f08c379a00000000000000000000000000000000000000000000000000000000081526004016102ad906106e1565b60405180910390fd5b50565b60035f9054906101000a900473ffffffffffffffffffffffffffffffffffffffff1681565b5f546102e934610387565b101561032a576040517f08c379a00000000000000000000000000000000000000000000000000000000081526004016103219061076f565b60405180910390fd5b61033334610387565b60025f3373ffffffffffffffffffffffffffffffffffffffff1673ffffffffffffffffffffffffffffffffffffffff1681526020019081526020015f205f82825461037e91906107c3565b92505081905550565b5f806103916103bf565b90505f670de0b6b3a764000082856103a991906107f6565b6103b39190610864565b90508092505050919050565b5f8073694aa1769357215de4fac081bf1f309adc32530690505f8173ffffffffffffffffffffffffffffffffffffffff1663feaf968c6040518163ffffffff1660e01b815260040160a060405180830381865afa158015610422573d5f803e3d5ffd5b505050506040513d601f19601f820116820180604052508101906104469190610934565b5050509150506402540be4008161045d91906107f6565b9250505090565b828054828255905f5260205f209081019282156104da579160200282015b828111156104d9578251825f6101000a81548173ffffffffffffffffffffffffffffffffffffffff021916908373ffffffffffffffffffffffffffffffffffffffff16021790555091602001919060010190610482565b5b5090506104e791906104eb565b5090565b5b80821115610502575f815f9055506001016104ec565b5090565b5f73ffffffffffffffffffffffffffffffffffffffff82169050919050565b5f61052f82610506565b9050919050565b61053f81610525565b82525050565b5f6020820190506105585f830184610536565b92915050565b5f82825260208201905092915050565b7f43616e206f6e6c792062652077697468647261776e20627920746865204f776e5f8201527f6572210000000000000000000000000000000000000000000000000000000000602082015250565b5f6105c860238361055e565b91506105d38261056e565b604082019050919050565b5f6020820190508181035f8301526105f5816105bc565b9050919050565b7f4e487b71000000000000000000000000000000000000000000000000000000005f52603260045260245ffd5b7f4e487b71000000000000000000000000000000000000000000000000000000005f52604160045260245ffd5b5f81905092915050565b50565b5f61066e5f83610656565b915061067982610660565b5f82019050919050565b5f61068d82610663565b9150819050919050565b7f5472616e73616374696f6e20556e7375636365737366756c00000000000000005f82015250565b5f6106cb60188361055e565b91506106d682610697565b602082019050919050565b5f6020820190508181035f8301526106f8816106bf565b9050919050565b7f4469646e27742073656e6420656e6f7567682065746865722e204d696e696d755f8201527f6d2055534420352e303000000000000000000000000000000000000000000000602082015250565b5f610759602a8361055e565b9150610764826106ff565b604082019050919050565b5f6020820190508181035f8301526107868161074d565b9050919050565b5f819050919050565b7f4e487b71000000000000000000000000000000000000000000000000000000005f52601160045260245ffd5b5f6107cd8261078d565b91506107d88361078d565b92508282019050808211156107f0576107ef610796565b5b92915050565b5f6108008261078d565b915061080b8361078d565b92508282026108198161078d565b915082820484148315176108305761082f610796565b5b5092915050565b7f4e487b71000000000000000000000000000000000000000000000000000000005f52601260045260245ffd5b5f61086e8261078d565b91506108798361078d565b92508261088957610888610837565b5b828204905092915050565b5f80fd5b5f69ffffffffffffffffffff82169050919050565b6108b681610898565b81146108c0575f80fd5b50565b5f815190506108d1816108ad565b92915050565b5f819050919050565b6108e9816108d7565b81146108f3575f80fd5b50565b5f81519050610904816108e0565b92915050565b6109138161078d565b811461091d575f80fd5b50565b5f8151905061092e8161090a565b92915050565b5f805f805f60a0868803121561094d5761094c610894565b5b5f61095a888289016108c3565b955050602061096b888289016108f6565b945050604061097c88828901610920565b935050606061098d88828901610920565b925050608061099e888289016108c3565b915050929550929590935056fea26469706673582212204d5f69e9eff85a01ec11964c76cee57fc5c933d2adda15adfc3b4acd7a79c1c464736f6c63430008180033",
					"opcodes": "PUSH1 0x80 PUSH1 0x40 MSTORE PUSH8 0x4563918244F40000 PUSH0 SSTORE CALLVALUE DUP1 ISZERO PUSH2 0x1A JUMPI PUSH0 DUP1 REVERT JUMPDEST POP CALLER PUSH1 0x3 PUSH0 PUSH2 0x100 EXP DUP2 SLOAD DUP2 PUSH20 0xFFFFFFFFFFFFFFFFFFFFFFFFFFFFFFFFFFFFFFFF MUL NOT AND SWAP1 DUP4 PUSH20 0xFFFFFFFFFFFFFFFFFFFFFFFFFFFFFFFFFFFFFFFF AND MUL OR SWAP1 SSTORE POP PUSH2 0x9E1 DUP1 PUSH2 0x68 PUSH0 CODECOPY PUSH0 RETURN INVALID PUSH1 0x80 PUSH1 0x40 MSTORE PUSH1 0x4 CALLDATASIZE LT PUSH2 0x33 JUMPI PUSH0 CALLDATALOAD PUSH1 0xE0 SHR DUP1 PUSH4 0x3CCFD60B EQ PUSH2 0x37 JUMPI DUP1 PUSH4 0x8DA5CB5B EQ PUSH2 0x4D JUMPI DUP1 PUSH4 0xB60D4288 EQ PUSH2 0x77 JUMPI JUMPDEST PUSH0 DUP1 REVERT JUMPDEST CALLVALUE DUP1 ISZERO PUSH2 0x42 JUMPI PUSH0 DUP1 REVERT JUMPDEST POP PUSH2 0x4B PUSH2 0x81 JUMP JUMPDEST STOP JUMPDEST CALLVALUE DUP1 ISZERO PUSH2 0x58 JUMPI PUSH0 DUP1 REVERT JUMPDEST POP PUSH2 0x61 PUSH2 0x2B9 JUMP JUMPDEST PUSH1 0x40 MLOAD PUSH2 0x6E SWAP2 SWAP1 PUSH2 0x545 JUMP JUMPDEST PUSH1 0x40 MLOAD DUP1 SWAP2 SUB SWAP1 RETURN JUMPDEST PUSH2 0x7F PUSH2 0x2DE JUMP JUMPDEST STOP JUMPDEST PUSH1 0x3 PUSH0 SWAP1 SLOAD SWAP1 PUSH2 0x100 EXP SWAP1 DIV PUSH20 0xFFFFFFFFFFFFFFFFFFFFFFFFFFFFFFFFFFFFFFFF AND PUSH20 0xFFFFFFFFFFFFFFFFFFFFFFFFFFFFFFFFFFFFFFFF AND CALLER PUSH20 0xFFFFFFFFFFFFFFFFFFFFFFFFFFFFFFFFFFFFFFFF AND EQ PUSH2 0x110 JUMPI PUSH1 0x40 MLOAD PUSH32 0x8C379A000000000000000000000000000000000000000000000000000000000 DUP2 MSTORE PUSH1 0x4 ADD PUSH2 0x107 SWAP1 PUSH2 0x5DE JUMP JUMPDEST PUSH1 0x40 MLOAD DUP1 SWAP2 SUB SWAP1 REVERT JUMPDEST PUSH0 JUMPDEST PUSH1 0x1 DUP1 SLOAD SWAP1 POP DUP2 LT ISZERO PUSH2 0x1AE JUMPI PUSH0 PUSH1 0x1 DUP3 DUP2 SLOAD DUP2 LT PUSH2 0x134 JUMPI PUSH2 0x133 PUSH2 0x5FC JUMP JUMPDEST JUMPDEST SWAP1 PUSH0 MSTORE PUSH1 0x20 PUSH0 KECCAK256 ADD PUSH0 SWAP1 SLOAD SWAP1 PUSH2 0x100 EXP SWAP1 DIV PUSH20 0xFFFFFFFFFFFFFFFFFFFFFFFFFFFFFFFFFFFFFFFF AND SWAP1 POP PUSH0 PUSH1 0x2 PUSH0 DUP4 PUSH20 0xFFFFFFFFFFFFFFFFFFFFFFFFFFFFFFFFFFFFFFFF AND PUSH20 0xFFFFFFFFFFFFFFFFFFFFFFFFFFFFFFFFFFFFFFFF AND DUP2 MSTORE PUSH1 0x20 ADD SWAP1 DUP2 MSTORE PUSH1 0x20 ADD PUSH0 KECCAK256 DUP2 SWAP1 SSTORE POP POP DUP1 DUP1 PUSH1 0x1 ADD SWAP2 POP POP PUSH2 0x112 JUMP JUMPDEST POP PUSH0 PUSH8 0xFFFFFFFFFFFFFFFF DUP2 GT ISZERO PUSH2 0x1C9 JUMPI PUSH2 0x1C8 PUSH2 0x629 JUMP JUMPDEST JUMPDEST PUSH1 0x40 MLOAD SWAP1 DUP1 DUP3 MSTORE DUP1 PUSH1 0x20 MUL PUSH1 0x20 ADD DUP3 ADD PUSH1 0x40 MSTORE DUP1 ISZERO PUSH2 0x1F7 JUMPI DUP2 PUSH1 0x20 ADD PUSH1 0x20 DUP3 MUL DUP1 CALLDATASIZE DUP4 CALLDATACOPY DUP1 DUP3 ADD SWAP2 POP POP SWAP1 POP JUMPDEST POP PUSH1 0x1 SWAP1 DUP1 MLOAD SWAP1 PUSH1 0x20 ADD SWAP1 PUSH2 0x20D SWAP3 SWAP2 SWAP1 PUSH2 0x464 JUMP JUMPDEST POP PUSH0 CALLER PUSH20 0xFFFFFFFFFFFFFFFFFFFFFFFFFFFFFFFFFFFFFFFF AND SELFBALANCE PUSH1 0x40 MLOAD PUSH2 0x233 SWAP1 PUSH2 0x683 JUMP JUMPDEST PUSH0 PUSH1 0x40 MLOAD DUP1 DUP4 SUB DUP2 DUP6 DUP8 GAS CALL SWAP3 POP POP POP RETURNDATASIZE DUP1 PUSH0 DUP2 EQ PUSH2 0x26D JUMPI PUSH1 0x40 MLOAD SWAP2 POP PUSH1 0x1F NOT PUSH1 0x3F RETURNDATASIZE ADD AND DUP3 ADD PUSH1 0x40 MSTORE RETURNDATASIZE DUP3 MSTORE RETURNDATASIZE PUSH0 PUSH1 0x20 DUP5 ADD RETURNDATACOPY PUSH2 0x272 JUMP JUMPDEST PUSH1 0x60 SWAP2 POP JUMPDEST POP POP SWAP1 POP DUP1 PUSH2 0x2B6 JUMPI PUSH1 0x40 MLOAD PUSH32 0x8C379A000000000000000000000000000000000000000000000000000000000 DUP2 MSTORE PUSH1 0x4 ADD PUSH2 0x2AD SWAP1 PUSH2 0x6E1 JUMP JUMPDEST PUSH1 0x40 MLOAD DUP1 SWAP2 SUB SWAP1 REVERT JUMPDEST POP JUMP JUMPDEST PUSH1 0x3 PUSH0 SWAP1 SLOAD SWAP1 PUSH2 0x100 EXP SWAP1 DIV PUSH20 0xFFFFFFFFFFFFFFFFFFFFFFFFFFFFFFFFFFFFFFFF AND DUP2 JUMP JUMPDEST PUSH0 SLOAD PUSH2 0x2E9 CALLVALUE PUSH2 0x387 JUMP JUMPDEST LT ISZERO PUSH2 0x32A JUMPI PUSH1 0x40 MLOAD PUSH32 0x8C379A000000000000000000000000000000000000000000000000000000000 DUP2 MSTORE PUSH1 0x4 ADD PUSH2 0x321 SWAP1 PUSH2 0x76F JUMP JUMPDEST PUSH1 0x40 MLOAD DUP1 SWAP2 SUB SWAP1 REVERT JUMPDEST PUSH2 0x333 CALLVALUE PUSH2 0x387 JUMP JUMPDEST PUSH1 0x2 PUSH0 CALLER PUSH20 0xFFFFFFFFFFFFFFFFFFFFFFFFFFFFFFFFFFFFFFFF AND PUSH20 0xFFFFFFFFFFFFFFFFFFFFFFFFFFFFFFFFFFFFFFFF AND DUP2 MSTORE PUSH1 0x20 ADD SWAP1 DUP2 MSTORE PUSH1 0x20 ADD PUSH0 KECCAK256 PUSH0 DUP3 DUP3 SLOAD PUSH2 0x37E SWAP2 SWAP1 PUSH2 0x7C3 JUMP JUMPDEST SWAP3 POP POP DUP2 SWAP1 SSTORE POP JUMP JUMPDEST PUSH0 DUP1 PUSH2 0x391 PUSH2 0x3BF JUMP JUMPDEST SWAP1 POP PUSH0 PUSH8 0xDE0B6B3A7640000 DUP3 DUP6 PUSH2 0x3A9 SWAP2 SWAP1 PUSH2 0x7F6 JUMP JUMPDEST PUSH2 0x3B3 SWAP2 SWAP1 PUSH2 0x864 JUMP JUMPDEST SWAP1 POP DUP1 SWAP3 POP POP POP SWAP2 SWAP1 POP JUMP JUMPDEST PUSH0 DUP1 PUSH20 0x694AA1769357215DE4FAC081BF1F309ADC325306 SWAP1 POP PUSH0 DUP2 PUSH20 0xFFFFFFFFFFFFFFFFFFFFFFFFFFFFFFFFFFFFFFFF AND PUSH4 0xFEAF968C PUSH1 0x40 MLOAD DUP2 PUSH4 0xFFFFFFFF AND PUSH1 0xE0 SHL DUP2 MSTORE PUSH1 0x4 ADD PUSH1 0xA0 PUSH1 0x40 MLOAD DUP1 DUP4 SUB DUP2 DUP7 GAS STATICCALL ISZERO DUP1 ISZERO PUSH2 0x422 JUMPI RETURNDATASIZE PUSH0 DUP1 RETURNDATACOPY RETURNDATASIZE PUSH0 REVERT JUMPDEST POP POP POP POP PUSH1 0x40 MLOAD RETURNDATASIZE PUSH1 0x1F NOT PUSH1 0x1F DUP3 ADD AND DUP3 ADD DUP1 PUSH1 0x40 MSTORE POP DUP2 ADD SWAP1 PUSH2 0x446 SWAP2 SWAP1 PUSH2 0x934 JUMP JUMPDEST POP POP POP SWAP2 POP POP PUSH5 0x2540BE400 DUP2 PUSH2 0x45D SWAP2 SWAP1 PUSH2 0x7F6 JUMP JUMPDEST SWAP3 POP POP POP SWAP1 JUMP JUMPDEST DUP3 DUP1 SLOAD DUP3 DUP3 SSTORE SWAP1 PUSH0 MSTORE PUSH1 0x20 PUSH0 KECCAK256 SWAP1 DUP2 ADD SWAP3 DUP3 ISZERO PUSH2 0x4DA JUMPI SWAP2 PUSH1 0x20 MUL DUP3 ADD JUMPDEST DUP3 DUP2 GT ISZERO PUSH2 0x4D9 JUMPI DUP3 MLOAD DUP3 PUSH0 PUSH2 0x100 EXP DUP2 SLOAD DUP2 PUSH20 0xFFFFFFFFFFFFFFFFFFFFFFFFFFFFFFFFFFFFFFFF MUL NOT AND SWAP1 DUP4 PUSH20 0xFFFFFFFFFFFFFFFFFFFFFFFFFFFFFFFFFFFFFFFF AND MUL OR SWAP1 SSTORE POP SWAP2 PUSH1 0x20 ADD SWAP2 SWAP1 PUSH1 0x1 ADD SWAP1 PUSH2 0x482 JUMP JUMPDEST JUMPDEST POP SWAP1 POP PUSH2 0x4E7 SWAP2 SWAP1 PUSH2 0x4EB JUMP JUMPDEST POP SWAP1 JUMP JUMPDEST JUMPDEST DUP1 DUP3 GT ISZERO PUSH2 0x502 JUMPI PUSH0 DUP2 PUSH0 SWAP1 SSTORE POP PUSH1 0x1 ADD PUSH2 0x4EC JUMP JUMPDEST POP SWAP1 JUMP JUMPDEST PUSH0 PUSH20 0xFFFFFFFFFFFFFFFFFFFFFFFFFFFFFFFFFFFFFFFF DUP3 AND SWAP1 POP SWAP2 SWAP1 POP JUMP JUMPDEST PUSH0 PUSH2 0x52F DUP3 PUSH2 0x506 JUMP JUMPDEST SWAP1 POP SWAP2 SWAP1 POP JUMP JUMPDEST PUSH2 0x53F DUP2 PUSH2 0x525 JUMP JUMPDEST DUP3 MSTORE POP POP JUMP JUMPDEST PUSH0 PUSH1 0x20 DUP3 ADD SWAP1 POP PUSH2 0x558 PUSH0 DUP4 ADD DUP5 PUSH2 0x536 JUMP JUMPDEST SWAP3 SWAP2 POP POP JUMP JUMPDEST PUSH0 DUP3 DUP3 MSTORE PUSH1 0x20 DUP3 ADD SWAP1 POP SWAP3 SWAP2 POP POP JUMP JUMPDEST PUSH32 0x43616E206F6E6C792062652077697468647261776E20627920746865204F776E PUSH0 DUP3 ADD MSTORE PUSH32 0x6572210000000000000000000000000000000000000000000000000000000000 PUSH1 0x20 DUP3 ADD MSTORE POP JUMP JUMPDEST PUSH0 PUSH2 0x5C8 PUSH1 0x23 DUP4 PUSH2 0x55E JUMP JUMPDEST SWAP2 POP PUSH2 0x5D3 DUP3 PUSH2 0x56E JUMP JUMPDEST PUSH1 0x40 DUP3 ADD SWAP1 POP SWAP2 SWAP1 POP JUMP JUMPDEST PUSH0 PUSH1 0x20 DUP3 ADD SWAP1 POP DUP2 DUP2 SUB PUSH0 DUP4 ADD MSTORE PUSH2 0x5F5 DUP2 PUSH2 0x5BC JUMP JUMPDEST SWAP1 POP SWAP2 SWAP1 POP JUMP JUMPDEST PUSH32 0x4E487B7100000000000000000000000000000000000000000000000000000000 PUSH0 MSTORE PUSH1 0x32 PUSH1 0x4 MSTORE PUSH1 0x24 PUSH0 REVERT JUMPDEST PUSH32 0x4E487B7100000000000000000000000000000000000000000000000000000000 PUSH0 MSTORE PUSH1 0x41 PUSH1 0x4 MSTORE PUSH1 0x24 PUSH0 REVERT JUMPDEST PUSH0 DUP2 SWAP1 POP SWAP3 SWAP2 POP POP JUMP JUMPDEST POP JUMP JUMPDEST PUSH0 PUSH2 0x66E PUSH0 DUP4 PUSH2 0x656 JUMP JUMPDEST SWAP2 POP PUSH2 0x679 DUP3 PUSH2 0x660 JUMP JUMPDEST PUSH0 DUP3 ADD SWAP1 POP SWAP2 SWAP1 POP JUMP JUMPDEST PUSH0 PUSH2 0x68D DUP3 PUSH2 0x663 JUMP JUMPDEST SWAP2 POP DUP2 SWAP1 POP SWAP2 SWAP1 POP JUMP JUMPDEST PUSH32 0x5472616E73616374696F6E20556E7375636365737366756C0000000000000000 PUSH0 DUP3 ADD MSTORE POP JUMP JUMPDEST PUSH0 PUSH2 0x6CB PUSH1 0x18 DUP4 PUSH2 0x55E JUMP JUMPDEST SWAP2 POP PUSH2 0x6D6 DUP3 PUSH2 0x697 JUMP JUMPDEST PUSH1 0x20 DUP3 ADD SWAP1 POP SWAP2 SWAP1 POP JUMP JUMPDEST PUSH0 PUSH1 0x20 DUP3 ADD SWAP1 POP DUP2 DUP2 SUB PUSH0 DUP4 ADD MSTORE PUSH2 0x6F8 DUP2 PUSH2 0x6BF JUMP JUMPDEST SWAP1 POP SWAP2 SWAP1 POP JUMP JUMPDEST PUSH32 0x4469646E27742073656E6420656E6F7567682065746865722E204D696E696D75 PUSH0 DUP3 ADD MSTORE PUSH32 0x6D2055534420352E303000000000000000000000000000000000000000000000 PUSH1 0x20 DUP3 ADD MSTORE POP JUMP JUMPDEST PUSH0 PUSH2 0x759 PUSH1 0x2A DUP4 PUSH2 0x55E JUMP JUMPDEST SWAP2 POP PUSH2 0x764 DUP3 PUSH2 0x6FF JUMP JUMPDEST PUSH1 0x40 DUP3 ADD SWAP1 POP SWAP2 SWAP1 POP JUMP JUMPDEST PUSH0 PUSH1 0x20 DUP3 ADD SWAP1 POP DUP2 DUP2 SUB PUSH0 DUP4 ADD MSTORE PUSH2 0x786 DUP2 PUSH2 0x74D JUMP JUMPDEST SWAP1 POP SWAP2 SWAP1 POP JUMP JUMPDEST PUSH0 DUP2 SWAP1 POP SWAP2 SWAP1 POP JUMP JUMPDEST PUSH32 0x4E487B7100000000000000000000000000000000000000000000000000000000 PUSH0 MSTORE PUSH1 0x11 PUSH1 0x4 MSTORE PUSH1 0x24 PUSH0 REVERT JUMPDEST PUSH0 PUSH2 0x7CD DUP3 PUSH2 0x78D JUMP JUMPDEST SWAP2 POP PUSH2 0x7D8 DUP4 PUSH2 0x78D JUMP JUMPDEST SWAP3 POP DUP3 DUP3 ADD SWAP1 POP DUP1 DUP3 GT ISZERO PUSH2 0x7F0 JUMPI PUSH2 0x7EF PUSH2 0x796 JUMP JUMPDEST JUMPDEST SWAP3 SWAP2 POP POP JUMP JUMPDEST PUSH0 PUSH2 0x800 DUP3 PUSH2 0x78D JUMP JUMPDEST SWAP2 POP PUSH2 0x80B DUP4 PUSH2 0x78D JUMP JUMPDEST SWAP3 POP DUP3 DUP3 MUL PUSH2 0x819 DUP2 PUSH2 0x78D JUMP JUMPDEST SWAP2 POP DUP3 DUP3 DIV DUP5 EQ DUP4 ISZERO OR PUSH2 0x830 JUMPI PUSH2 0x82F PUSH2 0x796 JUMP JUMPDEST JUMPDEST POP SWAP3 SWAP2 POP POP JUMP JUMPDEST PUSH32 0x4E487B7100000000000000000000000000000000000000000000000000000000 PUSH0 MSTORE PUSH1 0x12 PUSH1 0x4 MSTORE PUSH1 0x24 PUSH0 REVERT JUMPDEST PUSH0 PUSH2 0x86E DUP3 PUSH2 0x78D JUMP JUMPDEST SWAP2 POP PUSH2 0x879 DUP4 PUSH2 0x78D JUMP JUMPDEST SWAP3 POP DUP3 PUSH2 0x889 JUMPI PUSH2 0x888 PUSH2 0x837 JUMP JUMPDEST JUMPDEST DUP3 DUP3 DIV SWAP1 POP SWAP3 SWAP2 POP POP JUMP JUMPDEST PUSH0 DUP1 REVERT JUMPDEST PUSH0 PUSH10 0xFFFFFFFFFFFFFFFFFFFF DUP3 AND SWAP1 POP SWAP2 SWAP1 POP JUMP JUMPDEST PUSH2 0x8B6 DUP2 PUSH2 0x898 JUMP JUMPDEST DUP2 EQ PUSH2 0x8C0 JUMPI PUSH0 DUP1 REVERT JUMPDEST POP JUMP JUMPDEST PUSH0 DUP2 MLOAD SWAP1 POP PUSH2 0x8D1 DUP2 PUSH2 0x8AD JUMP JUMPDEST SWAP3 SWAP2 POP POP JUMP JUMPDEST PUSH0 DUP2 SWAP1 POP SWAP2 SWAP1 POP JUMP JUMPDEST PUSH2 0x8E9 DUP2 PUSH2 0x8D7 JUMP JUMPDEST DUP2 EQ PUSH2 0x8F3 JUMPI PUSH0 DUP1 REVERT JUMPDEST POP JUMP JUMPDEST PUSH0 DUP2 MLOAD SWAP1 POP PUSH2 0x904 DUP2 PUSH2 0x8E0 JUMP JUMPDEST SWAP3 SWAP2 POP POP JUMP JUMPDEST PUSH2 0x913 DUP2 PUSH2 0x78D JUMP JUMPDEST DUP2 EQ PUSH2 0x91D JUMPI PUSH0 DUP1 REVERT JUMPDEST POP JUMP JUMPDEST PUSH0 DUP2 MLOAD SWAP1 POP PUSH2 0x92E DUP2 PUSH2 0x90A JUMP JUMPDEST SWAP3 SWAP2 POP POP JUMP JUMPDEST PUSH0 DUP1 PUSH0 DUP1 PUSH0 PUSH1 0xA0 DUP7 DUP9 SUB SLT ISZERO PUSH2 0x94D JUMPI PUSH2 0x94C PUSH2 0x894 JUMP JUMPDEST JUMPDEST PUSH0 PUSH2 0x95A DUP9 DUP3 DUP10 ADD PUSH2 0x8C3 JUMP JUMPDEST SWAP6 POP POP PUSH1 0x20 PUSH2 0x96B DUP9 DUP3 DUP10 ADD PUSH2 0x8F6 JUMP JUMPDEST SWAP5 POP POP PUSH1 0x40 PUSH2 0x97C DUP9 DUP3 DUP10 ADD PUSH2 0x920 JUMP JUMPDEST SWAP4 POP POP PUSH1 0x60 PUSH2 0x98D DUP9 DUP3 DUP10 ADD PUSH2 0x920 JUMP JUMPDEST SWAP3 POP POP PUSH1 0x80 PUSH2 0x99E DUP9 DUP3 DUP10 ADD PUSH2 0x8C3 JUMP JUMPDEST SWAP2 POP POP SWAP3 SWAP6 POP SWAP3 SWAP6 SWAP1 SWAP4 POP JUMP INVALID LOG2 PUSH5 0x6970667358 0x22 SLT KECCAK256 0x4D PUSH0 PUSH10 0xE9EFF85A01EC11964C76 0xCE 0xE5 PUSH32 0xC5C933D2ADDA15ADFC3B4ACD7A79C1C464736F6C634300081800330000000000 "
				},
				"gasEstimates": {
					"creation": {
						"codeDepositCost": "505800",
						"executionCost": "46911",
						"totalCost": "552711"
					},
					"external": {
						"fund()": "infinite",
						"owner()": "2508",
						"withdraw()": "infinite"
					}
				},
				"methodIdentifiers": {
					"fund()": "b60d4288",
					"owner()": "8da5cb5b",
					"withdraw()": "3ccfd60b"
				}
			},
			"storageLayout": {
				"storage": [
					{
						"astId": 55,
						"contract": "FundMe.sol:FundMe",
						"label": "minimumUSD",
						"offset": 0,
						"slot": "0",
						"type": "t_uint256"
					},
					{
						"astId": 58,
						"contract": "FundMe.sol:FundMe",
						"label": "funders",
						"offset": 0,
						"slot": "1",
						"type": "t_array(t_address)dyn_storage"
					},
					{
						"astId": 62,
						"contract": "FundMe.sol:FundMe",
						"label": "fundedAmounts",
						"offset": 0,
						"slot": "2",
						"type": "t_mapping(t_address,t_uint256)"
					},
					{
						"astId": 64,
						"contract": "FundMe.sol:FundMe",
						"label": "owner",
						"offset": 0,
						"slot": "3",
						"type": "t_address"
					}
				],
				"types": {
					"t_address": {
						"encoding": "inplace",
						"label": "address",
						"numberOfBytes": "20"
					},
					"t_array(t_address)dyn_storage": {
						"base": "t_address",
						"encoding": "dynamic_array",
						"label": "address[]",
						"numberOfBytes": "32"
					},
					"t_mapping(t_address,t_uint256)": {
						"encoding": "mapping",
						"key": "t_address",
						"label": "mapping(address => uint256)",
						"numberOfBytes": "32",
						"value": "t_uint256"
					},
					"t_uint256": {
						"encoding": "inplace",
						"label": "uint256",
						"numberOfBytes": "32"
					}
				}
			},
			"userdoc": {
				"kind": "user",
				"methods": {},
				"version": 1
			}
		}
	}
}