{
	"data": {
		"bytecode": {
			"linkReferences": {},
			"object": "6080604052674563918244f400005f5534801561001a575f80fd5b506104a3806100285f395ff3fe60806040526004361061001d575f3560e01c8063b60d428814610021575b5f80fd5b61002961002b565b005b5f54610036346100d4565b1015610077576040517f08c379a000000000000000000000000000000000000000000000000000000000815260040161006e90610231565b60405180910390fd5b610080346100d4565b60015f3373ffffffffffffffffffffffffffffffffffffffff1673ffffffffffffffffffffffffffffffffffffffff1681526020019081526020015f205f8282546100cb9190610285565b92505081905550565b5f806100de61010c565b90505f670de0b6b3a764000082856100f691906102b8565b6101009190610326565b90508092505050919050565b5f8073694aa1769357215de4fac081bf1f309adc32530690505f8173ffffffffffffffffffffffffffffffffffffffff1663feaf968c6040518163ffffffff1660e01b815260040160a060405180830381865afa15801561016f573d5f803e3d5ffd5b505050506040513d601f19601f8201168201806040525081019061019391906103f6565b5050509150506402540be400816101aa91906102b8565b9250505090565b5f82825260208201905092915050565b7f4469646e27742073656e6420656e6f7567682065746865722e204d696e696d755f8201527f6d2055534420352e303000000000000000000000000000000000000000000000602082015250565b5f61021b602a836101b1565b9150610226826101c1565b604082019050919050565b5f6020820190508181035f8301526102488161020f565b9050919050565b5f819050919050565b7f4e487b71000000000000000000000000000000000000000000000000000000005f52601160045260245ffd5b5f61028f8261024f565b915061029a8361024f565b92508282019050808211156102b2576102b1610258565b5b92915050565b5f6102c28261024f565b91506102cd8361024f565b92508282026102db8161024f565b915082820484148315176102f2576102f1610258565b5b5092915050565b7f4e487b71000000000000000000000000000000000000000000000000000000005f52601260045260245ffd5b5f6103308261024f565b915061033b8361024f565b92508261034b5761034a6102f9565b5b828204905092915050565b5f80fd5b5f69ffffffffffffffffffff82169050919050565b6103788161035a565b8114610382575f80fd5b50565b5f815190506103938161036f565b92915050565b5f819050919050565b6103ab81610399565b81146103b5575f80fd5b50565b5f815190506103c6816103a2565b92915050565b6103d58161024f565b81146103df575f80fd5b50565b5f815190506103f0816103cc565b92915050565b5f805f805f60a0868803121561040f5761040e610356565b5b5f61041c88828901610385565b955050602061042d888289016103b8565b945050604061043e888289016103e2565b935050606061044f888289016103e2565b925050608061046088828901610385565b915050929550929590935056fea2646970667358221220940bd35308f751aa447a82f6ffa392879c072a0901fff8e61c1c96af26a2fbcb64736f6c63430008180033",
			"opcodes": "PUSH1 0x80 PUSH1 0x40 MSTORE PUSH8 0x4563918244F40000 PUSH0 SSTORE CALLVALUE DUP1 ISZERO PUSH2 0x1A JUMPI PUSH0 DUP1 REVERT JUMPDEST POP PUSH2 0x4A3 DUP1 PUSH2 0x28 PUSH0 CODECOPY PUSH0 RETURN INVALID PUSH1 0x80 PUSH1 0x40 MSTORE PUSH1 0x4 CALLDATASIZE LT PUSH2 0x1D JUMPI PUSH0 CALLDATALOAD PUSH1 0xE0 SHR DUP1 PUSH4 0xB60D4288 EQ PUSH2 0x21 JUMPI JUMPDEST PUSH0 DUP1 REVERT JUMPDEST PUSH2 0x29 PUSH2 0x2B JUMP JUMPDEST STOP JUMPDEST PUSH0 SLOAD PUSH2 0x36 CALLVALUE PUSH2 0xD4 JUMP JUMPDEST LT ISZERO PUSH2 0x77 JUMPI PUSH1 0x40 MLOAD PUSH32 0x8C379A000000000000000000000000000000000000000000000000000000000 DUP2 MSTORE PUSH1 0x4 ADD PUSH2 0x6E SWAP1 PUSH2 0x231 JUMP JUMPDEST PUSH1 0x40 MLOAD DUP1 SWAP2 SUB SWAP1 REVERT JUMPDEST PUSH2 0x80 CALLVALUE PUSH2 0xD4 JUMP JUMPDEST PUSH1 0x1 PUSH0 CALLER PUSH20 0xFFFFFFFFFFFFFFFFFFFFFFFFFFFFFFFFFFFFFFFF AND PUSH20 0xFFFFFFFFFFFFFFFFFFFFFFFFFFFFFFFFFFFFFFFF AND DUP2 MSTORE PUSH1 0x20 ADD SWAP1 DUP2 MSTORE PUSH1 0x20 ADD PUSH0 KECCAK256 PUSH0 DUP3 DUP3 SLOAD PUSH2 0xCB SWAP2 SWAP1 PUSH2 0x285 JUMP JUMPDEST SWAP3 POP POP DUP2 SWAP1 SSTORE POP JUMP JUMPDEST PUSH0 DUP1 PUSH2 0xDE PUSH2 0x10C JUMP JUMPDEST SWAP1 POP PUSH0 PUSH8 0xDE0B6B3A7640000 DUP3 DUP6 PUSH2 0xF6 SWAP2 SWAP1 PUSH2 0x2B8 JUMP JUMPDEST PUSH2 0x100 SWAP2 SWAP1 PUSH2 0x326 JUMP JUMPDEST SWAP1 POP DUP1 SWAP3 POP POP POP SWAP2 SWAP1 POP JUMP JUMPDEST PUSH0 DUP1 PUSH20 0x694AA1769357215DE4FAC081BF1F309ADC325306 SWAP1 POP PUSH0 DUP2 PUSH20 0xFFFFFFFFFFFFFFFFFFFFFFFFFFFFFFFFFFFFFFFF AND PUSH4 0xFEAF968C PUSH1 0x40 MLOAD DUP2 PUSH4 0xFFFFFFFF AND PUSH1 0xE0 SHL DUP2 MSTORE PUSH1 0x4 ADD PUSH1 0xA0 PUSH1 0x40 MLOAD DUP1 DUP4 SUB DUP2 DUP7 GAS STATICCALL ISZERO DUP1 ISZERO PUSH2 0x16F JUMPI RETURNDATASIZE PUSH0 DUP1 RETURNDATACOPY RETURNDATASIZE PUSH0 REVERT JUMPDEST POP POP POP POP PUSH1 0x40 MLOAD RETURNDATASIZE PUSH1 0x1F NOT PUSH1 0x1F DUP3 ADD AND DUP3 ADD DUP1 PUSH1 0x40 MSTORE POP DUP2 ADD SWAP1 PUSH2 0x193 SWAP2 SWAP1 PUSH2 0x3F6 JUMP JUMPDEST POP POP POP SWAP2 POP POP PUSH5 0x2540BE400 DUP2 PUSH2 0x1AA SWAP2 SWAP1 PUSH2 0x2B8 JUMP JUMPDEST SWAP3 POP POP POP SWAP1 JUMP JUMPDEST PUSH0 DUP3 DUP3 MSTORE PUSH1 0x20 DUP3 ADD SWAP1 POP SWAP3 SWAP2 POP POP JUMP JUMPDEST PUSH32 0x4469646E27742073656E6420656E6F7567682065746865722E204D696E696D75 PUSH0 DUP3 ADD MSTORE PUSH32 0x6D2055534420352E303000000000000000000000000000000000000000000000 PUSH1 0x20 DUP3 ADD MSTORE POP JUMP JUMPDEST PUSH0 PUSH2 0x21B PUSH1 0x2A DUP4 PUSH2 0x1B1 JUMP JUMPDEST SWAP2 POP PUSH2 0x226 DUP3 PUSH2 0x1C1 JUMP JUMPDEST PUSH1 0x40 DUP3 ADD SWAP1 POP SWAP2 SWAP1 POP JUMP JUMPDEST PUSH0 PUSH1 0x20 DUP3 ADD SWAP1 POP DUP2 DUP2 SUB PUSH0 DUP4 ADD MSTORE PUSH2 0x248 DUP2 PUSH2 0x20F JUMP JUMPDEST SWAP1 POP SWAP2 SWAP1 POP JUMP JUMPDEST PUSH0 DUP2 SWAP1 POP SWAP2 SWAP1 POP JUMP JUMPDEST PUSH32 0x4E487B7100000000000000000000000000000000000000000000000000000000 PUSH0 MSTORE PUSH1 0x11 PUSH1 0x4 MSTORE PUSH1 0x24 PUSH0 REVERT JUMPDEST PUSH0 PUSH2 0x28F DUP3 PUSH2 0x24F JUMP JUMPDEST SWAP2 POP PUSH2 0x29A DUP4 PUSH2 0x24F JUMP JUMPDEST SWAP3 POP DUP3 DUP3 ADD SWAP1 POP DUP1 DUP3 GT ISZERO PUSH2 0x2B2 JUMPI PUSH2 0x2B1 PUSH2 0x258 JUMP JUMPDEST JUMPDEST SWAP3 SWAP2 POP POP JUMP JUMPDEST PUSH0 PUSH2 0x2C2 DUP3 PUSH2 0x24F JUMP JUMPDEST SWAP2 POP PUSH2 0x2CD DUP4 PUSH2 0x24F JUMP JUMPDEST SWAP3 POP DUP3 DUP3 MUL PUSH2 0x2DB DUP2 PUSH2 0x24F JUMP JUMPDEST SWAP2 POP DUP3 DUP3 DIV DUP5 EQ DUP4 ISZERO OR PUSH2 0x2F2 JUMPI PUSH2 0x2F1 PUSH2 0x258 JUMP JUMPDEST JUMPDEST POP SWAP3 SWAP2 POP POP JUMP JUMPDEST PUSH32 0x4E487B7100000000000000000000000000000000000000000000000000000000 PUSH0 MSTORE PUSH1 0x12 PUSH1 0x4 MSTORE PUSH1 0x24 PUSH0 REVERT JUMPDEST PUSH0 PUSH2 0x330 DUP3 PUSH2 0x24F JUMP JUMPDEST SWAP2 POP PUSH2 0x33B DUP4 PUSH2 0x24F JUMP JUMPDEST SWAP3 POP DUP3 PUSH2 0x34B JUMPI PUSH2 0x34A PUSH2 0x2F9 JUMP JUMPDEST JUMPDEST DUP3 DUP3 DIV SWAP1 POP SWAP3 SWAP2 POP POP JUMP JUMPDEST PUSH0 DUP1 REVERT JUMPDEST PUSH0 PUSH10 0xFFFFFFFFFFFFFFFFFFFF DUP3 AND SWAP1 POP SWAP2 SWAP1 POP JUMP JUMPDEST PUSH2 0x378 DUP2 PUSH2 0x35A JUMP JUMPDEST DUP2 EQ PUSH2 0x382 JUMPI PUSH0 DUP1 REVERT JUMPDEST POP JUMP JUMPDEST PUSH0 DUP2 MLOAD SWAP1 POP PUSH2 0x393 DUP2 PUSH2 0x36F JUMP JUMPDEST SWAP3 SWAP2 POP POP JUMP JUMPDEST PUSH0 DUP2 SWAP1 POP SWAP2 SWAP1 POP JUMP JUMPDEST PUSH2 0x3AB DUP2 PUSH2 0x399 JUMP JUMPDEST DUP2 EQ PUSH2 0x3B5 JUMPI PUSH0 DUP1 REVERT JUMPDEST POP JUMP JUMPDEST PUSH0 DUP2 MLOAD SWAP1 POP PUSH2 0x3C6 DUP2 PUSH2 0x3A2 JUMP JUMPDEST SWAP3 SWAP2 POP POP JUMP JUMPDEST PUSH2 0x3D5 DUP2 PUSH2 0x24F JUMP JUMPDEST DUP2 EQ PUSH2 0x3DF JUMPI PUSH0 DUP1 REVERT JUMPDEST POP JUMP JUMPDEST PUSH0 DUP2 MLOAD SWAP1 POP PUSH2 0x3F0 DUP2 PUSH2 0x3CC JUMP JUMPDEST SWAP3 SWAP2 POP POP JUMP JUMPDEST PUSH0 DUP1 PUSH0 DUP1 PUSH0 PUSH1 0xA0 DUP7 DUP9 SUB SLT ISZERO PUSH2 0x40F JUMPI PUSH2 0x40E PUSH2 0x356 JUMP JUMPDEST JUMPDEST PUSH0 PUSH2 0x41C DUP9 DUP3 DUP10 ADD PUSH2 0x385 JUMP JUMPDEST SWAP6 POP POP PUSH1 0x20 PUSH2 0x42D DUP9 DUP3 DUP10 ADD PUSH2 0x3B8 JUMP JUMPDEST SWAP5 POP POP PUSH1 0x40 PUSH2 0x43E DUP9 DUP3 DUP10 ADD PUSH2 0x3E2 JUMP JUMPDEST SWAP4 POP POP PUSH1 0x60 PUSH2 0x44F DUP9 DUP3 DUP10 ADD PUSH2 0x3E2 JUMP JUMPDEST SWAP3 POP POP PUSH1 0x80 PUSH2 0x460 DUP9 DUP3 DUP10 ADD PUSH2 0x385 JUMP JUMPDEST SWAP2 POP POP SWAP3 SWAP6 POP SWAP3 SWAP6 SWAP1 SWAP4 POP JUMP INVALID LOG2 PUSH5 0x6970667358 0x22 SLT KECCAK256 SWAP5 SIGNEXTEND 0xD3 MSTORE8 ADDMOD 0xF7 MLOAD 0xAA PREVRANDAO PUSH27 0x82F6FFA392879C072A0901FFF8E61C1C96AF26A2FBCB64736F6C63 NUMBER STOP ADDMOD XOR STOP CALLER "
		},
		"gasEstimates": {
			"creation": {
				"codeDepositCost": "237400",
				"executionCost": "22384",
				"totalCost": "259784"
			},
			"external": {
				"fund()": "infinite"
			}
		},
		"methodIdentifiers": {
			"fund()": "b60d4288"
		}
	},
	"abi": [
		{
			"inputs": [],
			"name": "fund",
			"outputs": [],
			"stateMutability": "payable",
			"type": "function"
		}
	]
}